:020000040800F2
:10000000701200209901000833180008E516000856
:10001000311800081F030008A93100080000000083
:10002000000000000000000000000000C1190008EE
:100030002103000800000000BF190008C3190008D0
:10004000B3010008B3010008B3010008B3010008C0
:10005000B3010008B3010008B3010008B3010008B0
:10006000B3010008B3010008B3010008B3010008A0
:10007000B3010008B3010008B3010008B301000890
:10008000B3010008B3010008B3010008B301000880
:10009000B3010008B3010008B3010008B301000870
:1000A000B3010008B3010008B3010008B301000860
:1000B000B3010008B3010008B3010008B301000850
:1000C000B3010008B3010008B3010008B301000840
:1000D000B3010008B3010008B3010008B301000830
:1000E000B3010008B3010008B3010008B301000820
:1000F000B3010008B3010008B3010008B301000810
:10010000B3010008B3010008B3010008B3010008FF
:10011000B3010008B3010008B3010008B3010008EF
:10012000B3010008B3010008B3010008B3010008DF
:10013000B30100080000000000000000B301000847
:10014000B3010008B3010008B3010008B3010008BF
:10015000B3010008B3010008B3010008B3010008AF
:10016000B3010008B3010008B3010008B30100089F
:10017000B30100083518000800000000000000006E
:10018000B3010008DFF80CD000F08CF800480047FD
:1001900039320008701200200648804706480047A0
:1001A000FEE7FEE7FEE7FEE7FEE7FEE7FEE7FEE727
:1001B000FEE7FEE7311A0008850100082DE9F05F2F
:1001C0000546002092469B468846064681464024C6
:1001D0001BE0284641464746224600F053F8534666
:1001E0005A46C01A914110D311461846224600F0D3
:1001F0003AF82D1A67EB01084F46224601200021EC
:1002000000F031F817EB00094E41201EA4F1010463
:10021000DFDC484631462A464346BDE8F09F40EAC7
:1002200001039B0703D009E008C9121F08C0042A74
:10023000FAD203E011F8013B00F8013B521EF9D25B
:100240007047D2B201E000F8012B491EFBD2704783
:100250000022F6E710B513460A4604461946FFF792
:10026000F0FF204610BD202A04DB203A00FA02F1FC
:10027000002070479140C2F1200320FA03F3194394
:1002800090407047202A04DB203A21FA02F0002136
:10029000704721FA02F3D040C2F120029140084396
:1002A00019467047064C074D06E0E06840F0010330
:1002B00094E8070098471034AC42F6D3FFF766FF86
:1002C000D4320008F432000870B58C1810F8015BC5
:1002D00015F0070301D110F8013B2A1106D110F8DF
:1002E000012B03E010F8016B01F8016B5B1EF9D1E3
:1002F0002B0705D40023521E0DD401F8013BFAE769
:1003000010F8013BCB1A921C03E013F8015B01F8D3
:10031000015B521EF9D5A142D8D3002070BDFEE783
:100320007047704731B500F011F9009C0546601C1C
:1003300002D004480078044400F008F9401BA042B1
:10034000FAD338BD500000202DE9FC4FDFF8C0A1E2
:10035000002301250AF1040B03244FF00F0C0BF1CD
:10036000040ECEE0324605FA03F6324072D04F68F2
:10037000012F05D0022F03D0112F01D0122F17D13A
:10038000D0F808905F0004FA07F829EA08090097F6
:10039000D1F80C8008FA07F848EA0908C0F8088084
:1003A0004768B7430E79C6F300169E403E43466049
:1003B000C6684FEA430804FA08F7BE4301978F68FE
:1003C00007FA08F73743C7604E68022E01D0122E95
:1003D00013D1DE0800EB86060096366A5F07FF0E33
:1003E0000CFA07F926EA0906D1F8109009FA07F97C
:1003F00049EA0609009EC6F820900668019FBE43A0
:100400000F7907F0030707FA08F7374307604E68CC
:10041000F60075D53F4E376847F480473760366839
:1004200023F0030706F4804600963B4E3E44B14657
:10043000D6F808689F074FEA17780CFA08F7BE430A
:10044000364FB84201D1002729E0354FB84202D1DA
:10045000012724E054E0334FB84201D102271EE0C7
:10046000314FB84201D1032719E0304FB84201D1D2
:10047000042714E02E4FB84201D105270FE02D4F7D
:10048000B84201D106270AE02B4FB84201D1072715
:1004900005E02A4FB84201D1082700E0092707FAF2
:1004A00008F73743C9F80878DAF800605746D1F8FA
:1004B000048096435FEAC83800D516433E60DBF8F7
:1004C00000605F46D1F8048096435FEA883800D523
:1004D00016433E60DEF800607746D1F8048096430C
:1004E0005FEAC82800D516433E60094F0C373E68C6
:1004F000D1F8048096435FEA882800D516433E6011
:100500005B1C0A681646DA407FF42CAFBDE8FC8F0E
:10051000003C0140443802400030014000000240ED
:100520000004024000080240000C0240001002409B
:100530000014024000180240001C0240002002404B
:100540000AB1816170470904FBE700000148806837
:100550007047000050000020024881680278114472
:1005600081607047500000200B4810B5016841F4CD
:1005700000710160016841F480610160016841F42B
:1005800080710160032000F071F8002000F006F88F
:1005900000F024F8002010BD003C024070B50D4D65
:1005A00004464FF47A712878B1FBF0F00A490968E3
:1005B000B1FBF0F001F01AF848B9102C07D2002274
:1005C0002146501E00F032F800206C6070BD012002
:1005D00070BD0000500000205C0000200B4882B07D
:1005E000016841F480410160006800F4804000909F
:1005F0000648001F016841F080510160006800F06A
:1006000080500090052002B000F030B8443802401D
:10061000002809DB00F01F02012191404009800001
:1006200000F1E020C0F8001170470000F0B40E4B5C
:100630001B680C46C3F30223C3F10705042D00D940
:100640000425191D072901D2002300E0DB1E012625
:1006500006FA05F1491E214099409E40761E16403B
:100660003143F0BC02F0A1BD0CED00E0064900F002
:10067000070208684FF6FF03184040EA0220034AC9
:1006800010430860704700000CED00E00000FA0520
:100690000068416200207047F0B50368586A39B1BC
:1006A0009C6A4FF4827600EB144400204D1E0AE051
:1006B00040EA024098620FE006EB8007DF59401CD9
:1006C00004EB1744C0B2A842F6D344EA02404FF408
:1006D000807202EB810158500020F0BDD0F8FC037D
:1006E00001F09BBDC1EBC10200EB8202D0F8FC031C
:1006F000926C01F0EEBCC1EBC10200EB8202D0F8BB
:10070000FC03D2F8082201F047BDD0F8FC0301F049
:1007100086BD70B504460B0601F00F00C0EBC001AA
:1007200004EB81014FF001024FF0000503D581F881
:100730003D203C3103E081F8FD5101F5FE71087068
:1007400094F8BC03012808D084F8BC23206802F088
:10075000E1F884F8BC53002070BD022070BD70B574
:10076000044601F00F006268904201D9012070BD7B
:100770000B0601F00F01C1EBC10104EB81014FF049
:1007800001024FF0000503D581F83D203C3103E024
:1007900081F8FD5101F5FE718D70087094F8BC036D
:1007A000012808D084F8BC23206802F08FFA84F86E
:1007B000BC53002070BD022070BD01F00F01C1EBE1
:1007C000C10100EB8100D0F8140270472DE9F0411F
:1007D00004460F0601F00F00C0EBC00104EB8101DD
:1007E0004FF001064FF0000503D581F83D603C3124
:1007F00003E081F8FD5101F5FE7108708A60CB704D
:100800004A7802B1C880022B00D10D7194F8BC0364
:10081000012809D084F8BC63206801F0CFFF284686
:1008200084F8BC53BDE8F0810220FBE770B50C46AC
:1008300001F00F05C5EBC50100EB8101C1F81032D5
:10084000C1F808220023C1F8143281F8FD3181F883
:10085000FC51036901F5FE71012B00D10A612207E9
:10086000027C006803D002F089FA002070BD02F01B
:1008700075F9FAE770B504460D4601F00F0061689E
:10088000884201D9012070BD29064FF000064FF0C3
:10089000010207D5C0EBC00104EB810181F83D20C6
:1008A0003C3107E0C5EBC50104EB810181F8FD6136
:1008B00001F5FE718A70087094F8BC03012807D016
:1008C00084F8BC23206802F02DFA280702D007E044
:1008D000022070BD217C04F57172206802F0CAF913
:1008E00084F8BC63002070BD70B50C4601F00F05A4
:1008F000C5EBC50100EB81010B658A6400234B65E4
:10090000012381F83D3001F83C5F0369012B00D1E0
:100910000A612207027C006803D002F02FFA00204F
:1009200070BD02F01BF9FAE72DE9FC5F056804468B
:10093000284602F04CFB00287ED1206802F073FBB1
:10094000002879D0206802F06EFB800704D520686B
:10095000416901F002014161206802F064FB01037A
:1009600004F571704FF001094FF0080A4FF0100BB9
:10097000009074D50026206802F034FB07466CE036
:10098000F80768D0F1B2206802F045FB8046C00746
:1009900007D005EB4611C1F8089B3146204600F010
:1009A0004FFF5FEA087034D52068016C019100EBBD
:1009B0004611D1F8080B2269012A019A0FD0EA4B9F
:1009C0009A4215D1000403D54FF40040C1F8080B3A
:1009D000204600F0E5FA2069012811D015E0E34B2C
:1009E0009A4205D9000403D54FF40040C1F8080B22
:1009F000204600F0D5FADD4901988842EBD804E0A2
:100A000020680121009A02F035F905EB4611C1F882
:100A100008AB5FEAC86003D505EB4611C1F808BB17
:100A20005FEA88600ED52069012804D12068012181
:100A3000009A02F01FF900E093E105EB4610202137
:100A4000C0F8081B5FEA884005D505EB46104FF457
:100A50000051C0F8081B7F08761C002F90D1206839
:100A600002F0E1FA40035ED5206802F0B4FA0746CE
:100A7000002656E0F80752D0F1B2206802F0B9FA29
:100A80008046C00726D006F00F0109FA01F0D5F81C
:100A900034188143C5F8341805EB4610C0F808999E
:100AA0002069012807D1C6EBC60004EB8000D0E91D
:100AB000112111448164F1B22046FFF713FE206931
:100AC000012807D136B9206D20B920680121009A8C
:100AD00002F0D0F85FEA087003D505EB4611C1F8C3
:100AE00008A95FEAC86003D505EB4610C0F808B94D
:100AF0005FEA486004D505EB46104021C0F80819AC
:100B00005FEA887004D505EB46100221C0F8081989
:100B10005FEA086003D53146204600F0FFFE7F08FB
:100B2000761C002FA6D1206802F07DFA00280DDA8D
:100B3000D5F8040820F00101C5F80418204600F09B
:100B400013FA2068416901F000414161206802F018
:100B50006AFA00050BD5D5F80808C00702D0204670
:100B600000F03AFA2068416901F4006141612068AF
:100B700002F059FAC00459D5D5F8040820F0010153
:100B8000C5F804181021206802F002FA00214FF67F
:100B90007F3212E005EB4110C0F80829D0F8003987
:100BA00023F40013C0F80039C0F8082BD0F8003B3C
:100BB00023F40013C0F8003B491C60688842E9D860
:100BC000D5F81C0840F00111C5F81C18206B00284E
:100BD00028460DD0D0F8840840F00B01C5F88418E1
:100BE000D5F8440840F00B012846C5F844180DE03C
:100BF000D0F8140842F22B010843C5F81408D5F8C0
:100C0000100840F00B012846C5F81018D0F800086D
:100C100020F4FE61C5F80018217C2068009A02F0DB
:100C200029F82068416901F480514161206802F08F
:100C3000FAF9800415D5206801F000FE206802F062
:100C4000B9F9E06000F07EFA0146227B206802F0EC
:100C500025FA204600F072F92068416901F400513C
:100C60004161206802F0DFF9C00634D5206881694F
:100C700021F0100181612F6A07F00F00C0EBC00066
:100C800004EB8006C7F3434006F5FE76022802D047
:100C9000062811D01AE047F6F070074216D0C7F3C5
:100CA0000A1217462846F16802F0C1F9F068384484
:100CB000F060B069384408E008222846009902F044
:100CC000B6F9B069C7F30A110844B06120688169B8
:100CD00041F010018161206802F0A5F9000707D5F5
:100CE000204600F045F92068416901F008014161A2
:100CF000206802F098F9C00208D50021204600F0D3
:100D000037F82068416901F480114161206802F0E0
:100D10008AF9800208D50021204600F02DF82068CD
:100D2000416901F400114161206802F07CF9400042
:100D300007D52046FFF7D2FC2068416901F08041C9
:100D40004161206802F06FF940070AD520684568C4
:100D5000680702D52046FFF7D8FC20684168294380
:100D60004160BDE8FC9F00000A31544F0A30544FE7
:100D7000D0F8FC0301F0A6BAD0F8FC0301F0A4BA45
:100D80002DE9F0418AB0040005D094F8BD0326682F
:100D9000002520B108E001200AB0BDE8F08184F808
:100DA000BC53204600F05EF8032084F8BD03F06BCE
:100DB000C00500D42561206801F0CAFE04F11001CD
:100DC000282288466846FFF72AFA94E80F0001F0C7
:100DD0004FFD0226C8BB0021206802F036F9002032
:100DE00001270EE0C0EBC00104EB810181F83D70EA
:100DF00001F83C0FC880CD708D60CD60401CC0B242
:100E00004D6161688142EDD8002011E0C0EBC00166
:100E100004EB810181F8FD5181F8FC0181F8FF515B
:100E2000C1F80452C1F80852401CC0B2C1F81052B7
:100E300061688142EAD8282241466846FFF7EFF907
:100E400094E80F0001F0BEFD10B184F8BD63A2E785
:100E500084F8385084F8BD73206801F0A7FD0020A5
:100E60009AE700002DE9F04186B004461421684657
:100E7000FFF7EEF92C492068884251D12B4C4FF0F6
:100E80000008206840F004002060206800F00400A2
:100E90000590206840F001002060206800F001000B
:100EA0000590206840F0020020602068022500F0D4
:100EB000020005900D208DE8210103260A276946CE
:100EC0001B48CDE90367FFF73FFA28208DE8210191
:100ED00069461848CDE90367FFF736FA43F6234021
:100EE0008DE8210169461448CDE90367FFF72CFA24
:100EF000206840F000502060206800F0005005900D
:100F0000206840F0804020602068002200F080408F
:100F1000059011464D20FFF789FB4D20FFF778FB28
:100F200006B0BDE8F0810000000004403038024007
:100F300000080240000002400004024070B5044670
:100F4000C068012570B1022801D0FFF7EAF92946EF
:100F5000D4F8FC0301F00DFAD4F8FC03BDE87040AE
:100F600001F0C9B90025F2E7D0F8FC0301F0EBB9B4
:100F7000D0F8FC0301F0F1B910B5044690F8BC03B9
:100F800001280BD0012084F8BC0384F838102068B5
:100F900002F072F8002084F8BC0310BD022010BDDE
:100FA000D0F8FC2300F57171104601F0EEB910B5D0
:100FB000044690F8BC0301280CD0012084F8BC033F
:100FC000206801F0E7FC206801F0CCFF002084F8E5
:100FD000BC0310BD022010BD10B50446D0F8FC03C0
:100FE00001F012FA2068D0F8001E41F00101C0F8AB
:100FF000001E206A002804D00248016841F0060162
:10100000016010BD10ED00E02DE9F0470E4605002F
:1010100063D0DFF81C81D8F80000F7B200F00F00B1
:10102000B04207D288F80070D8F8000000F00F0036
:10103000B04252D128683F4C810712D5400703D5F2
:10104000206840F4E05020602878000703D520682D
:1010500040F4604020602068A96820F0F000084358
:1010600020602878C0072BD03249686808390128E9
:1010700010D00968022810D0890700292DDA2168CC
:1010800021F0030101432160FFF760FA814641F23C
:10109000883A0EE009688903EFE78901EDE700BFB0
:1010A000FFF754FAA0EB0901514502D90320BDE82E
:1010B000F0872068696800F00C00B0EB810FEFD179
:1010C000D8F80010404601F00F01B14207D907706F
:1010D000006800F00F00B04201D00120E7E7287857
:1010E000400705D52068E96820F4E05008432060F7
:1010F0002878000706D52068296920F4604040EA76
:10110000C100206000F054F82168F02292FAA2F2A7
:1011100001F0F001B2FA82F2D140074A515CC840B6
:101120000649086006480068FFF738FA0020BEE765
:10113000003C024008380240BC3200085C0000203D
:101140005400002001480068704700005C00002047
:1011500008480949006809684FF4E05292FAA2F27F
:1011600001F4E051B2FA82F2D140044A515CC84025
:10117000704700005C00002008380240CC320008B4
:1011800008480949006809684FF4604292FAA2F2DF
:1011900001F46041B2FA82F2D140044A515CC84085
:1011A000704700005C00002008380240CC32000884
:1011B000154810B5006810F00C02144813D01449FB
:1011C000042A0FD0082A0ED10F4C241F226823684E
:1011D00002F03F025B0207D52068C0F38810A0FB35
:1011E000010106E0084610BD2168C1F38811A1FB8A
:1011F00000010023FEF7E2FF2168C1F30141491C11
:101200004900B0FBF1F010BD083802400024F400A2
:1012100000366E01F0B51F4C16460D461D4B0021E1
:1012200002220327283C0028186887B019D040F014
:1012300004001860186800F0040005901002009087
:10124000CDE90121CDE9037169461348FFF77CF828
:10125000206845EAC60120F078400843206007B0C6
:10126000F0BD40F001001860186800F00100059022
:101270004FF480700090CDE90121CDE903716946FA
:101280000648FFF761F82068354320F0EC602843FA
:10129000E4E700003038024000080240000002404D
:1012A0002DE9F84F040079D0DFF830B32078ABF1A6
:1012B0000408C007A8F1040536D0DBF80010584632
:1012C000C1F38101012908D00068C0F38100022820
:1012D0000AD1D8F80000400206D52868800323D53B
:1012E00060680028DFD01FE0BC492079891F0870A2
:1012F000606860B1FFF72AF9064604E0FFF726F9B7
:10130000801B642874D828688003F7D50CE0FFF7A9
:101310001DF9064605E000BFFFF718F9801B642899
:10132000F0D828688003F7D42078AD4E80074FF0BE
:10133000000943D5DBF80010584611F00C0F4FF0B0
:10134000F80A08D00068C0F3810002280AD1D8F852
:101350000000400206D42868800713D5E068012801
:101360001CD10FE0E068D0B101203060FFF7EEF84B
:10137000074604E0FFF7EAF8C01B0228C2D8286835
:101380008007F7D528689AFAAAF22169B2FA82F2A0
:1013900020F0F8009140084328600FE019E1C6F8FA
:1013A0000090FFF7D3F8074605E000BFFFF7CEF83F
:1013B000C01B0228A6D828688007F7D42078000729
:1013C00027D5DFF818A2874861690AF16C0A81B154
:1013D00001210160FFF7BAF8074604E0FFF7B6F80D
:1013E000C01B022804D8DAF800008007F6D510E008
:1013F00082E0C0F80090FFF7A9F8074605E000BFBB
:10140000FFF7A4F8C01B022876D8DAF8000080079E
:10141000F6D4207840075FD5DFF8C0A100270AF195
:10142000380ADAF80000C0000BD4DAF8001041F0F6
:101430008051CAF80010DAF80000012700F080504F
:1014400000906948016841F4807101600168C90534
:1014500012D4016841F480710160FFF777F80090C1
:1014600006E000BFFFF772F80099401A022843D83F
:101470005D480068C005F5D55849207A6831087084
:10148000A06888B1FFF762F8009007E0FFF75EF808
:101490000099411A41F28830814276D84F4868302D
:1014A00000688007F2D510E0FFF750F8009007E0E1
:1014B000FFF74CF80099411A41F28830814264D814
:1014C0004648683000688007F2D42FB1DAF800107F
:1014D00021F08051CAF80010A069E8B3DBF80010D1
:1014E000C1F38101022957D00228C6F8609004D0C8
:1014F000FFF72CF804464BE047E0FFF727F80746D4
:1015000005E000BFFFF722F8C01B64283DD828681B
:101510008001F7D4D4E90701084347F6C07292FA74
:10152000A2F2616AB2FA82F29140A26A4FF0FF33EE
:1015300003EB52024FF4403393FAA3F3B3FA83F36D
:101540009A40114308434FF0706292FAA2F2E16AA6
:10155000B2FA82F2914000E03DE00843C8F8000092
:1015600001203066FEF7F2FF044604E0FEF7EEFFCE
:10157000001B642809D828688001F7D52BE000BF3C
:10158000FEF7E4FF001B642802D90320BDE8F88FB2
:1015900028688001F4D41EE00128F7D0D8F80000B4
:1015A000E26900F48001914213D1226A00F03F0108
:1015B00091420ED1616AC0F38812914209D1A26AA8
:1015C00000F44031914204D1E16A00F07060884239
:1015D00001D00120DAE70020D8E7000008380240F7
:1015E00000004742800E47420070004010B5401E88
:1015F000B0F1807F01D3012010BD4FF0E024606185
:101600000F21601701F0D1FD0020A06107202061AB
:10161000002010BD70B5040004D094F839000025F6
:1016200010B106E0012070BD84F83850204600F06B
:1016300023F8242084F839002068C16821F400517F
:10164000C160204600F018FA2068016921F4904139
:1016500001612068416921F02A0141612068C16867
:1016600041F40051C160E563202084F8390084F81A
:101670003A00002070BD000010B586B00446142169
:101680006846FEF7E5FD14492068884221D11348D9
:101690000021026842F010020260006800F01000B1
:1016A00005900E481438026842F00102026000689A
:1016B00000F0010005904FF4C06000900220CDE9D9
:1016C0000101032003900720049069460448FEF7B7
:1016D0003BFE06B010BD000000100140443802403F
:1016E00000000240FEE70000F0B500230A24302588
:1016F00037261F4611E000BFB4EB107F02D905EB7F
:10170000107C01E006EB107C01F813C001EB430CE8
:1017100000015B1C8CF80170DBB29342ECD3F0BD8E
:1017200070B586B014216846FEF792FD1F4800246C
:10173000016841F004010160016801F004010591B4
:10174000016841F080010160016801F080010591AC
:10175000016841F001010160016801F0010105919A
:10176000016841F0020101600068114E00F00200C2
:101770004FF400550590002229463046FEF7E0FE62
:1017800001200095CDE90104694630460394FEF737
:10179000DBFD681100900220CDE901040394694645
:1017A00004480494FEF7D0FD06B070BD3038024006
:1017B00000080240000002400C4810B50A490160D0
:1017C0004FF4E1314160002181600C22C160C0E929
:1017D00004128161C161FFF71DFF002803D0BDE83D
:1017E0001040FEF79EBD10BD001001406C010020AE
:1017F00010B501220B490C4800F044FC08B1FEF77B
:1018000090FD0A49084800F025FE08B1FEF789FD61
:10181000054800F075FE002803D0BDE81040FEF733
:1018200080BD10BD00000020AC010020640000203D
:10183000FEE770470148FFF777B800007006002008
:101840002DE9F041044600680E46016C00EB461598
:10185000D5F8080B276920234FF40042012F08D048
:101860002C4FB9424FD1010449D500BFC5F8082B10
:101870004DE0DFF8A4C05FEA007E04F5717711D572
:10188000614503D9000401D5C5F8082B2046FFF7B0
:1018900087FB3A460121206801F0ECF90820C5F8E1
:1018A000080B34E05FEA806E02D5C5F8083B2EE0F5
:1018B00010F0280F2BD1614501D90004D6D4C6EB16
:1018C000C60004EB8000D5F8102BD0F80412C2F348
:1018D00012028A1AC0F81422D0F808221144C0F863
:1018E0000812F1B22046FEF706FF86B9D4F81002BE
:1018F00068B93A460121206801F0BCF907E080068A
:1019000001D5C5F8083BF1B22046FEF7F4FE0020F1
:10191000BDE8F0810A31544F0A30544F2DE9F84F99
:101920000E46C1EBC60100EB810481460568D4E98F
:1019300014103C34884202D90120BDE8F88F081AFF
:10194000A168814200D20846C01C870805EB4618F2
:101950001BE000BFA0EB010AA068504500D2824600
:101960000AF10300870899F8100000901FFA8AF323
:10197000F2B22846E16801F005FCE16801EB0A00DB
:10198000E060A16901EB0A00A061D8F8180980B2F3
:10199000B84205D3D4E90501814201D20028D9D14A
:1019A000D4E90501884208D806F00F0101208840DB
:1019B000D5F834188143C5F834180020BDE77047C6
:1019C0007047FEF7C9BD30B591B030216846FEF7CB
:1019D0003FFC14210CA8FEF73BFC032000900120E3
:1019E000019003901020022485040490069418208E
:1019F000CDE90750F020CDE9090404200B9068469A
:101A0000FFF74EFC0F20CDE90C0400200E904FF4A0
:101A1000A0500F90E002109003210CA8FFF7F4FAF9
:101A2000002229461046FFF7F5FB11B030BD00003B
:101A30000D48016841F0010101600B4A00210832A4
:101A400011600268094B1A400260031D084A1A60BF
:101A5000026822F48022026003480C3001600549CC
:101A6000580608607047000000380240FFFFF6FE8D
:101A70001030002408ED00E02DE9F0410446006834
:101A80000169E26821F44051114301612169A068B4
:101A9000E26908436169114322680843D16849F249
:101AA0000C6399430143D16020684169A26921F424
:101AB000407111434161E26964253226B2F5004F5D
:101AC0004D494E48226806D0824201D08A4263D1F5
:101AD000FFF756FB62E0824201D08A4225D1FFF730
:101AE0004FFB00EBC00101EB001061686FF0180CB8
:101AF0004900B0FBF1F3B3FBF5F3B0FBF1F7B0FB3A
:101B0000F1F203FB0CF307EB830306EBC303B2FB19
:101B1000F5F2B3FBF5F3120103F0F80302EB430215
:101B2000B0FBF1F3B0FBF1F024E0FFF711FB00EBA9
:101B3000C00101EB001160686FF0180C4000B1FBB0
:101B4000F0F3B3FBF5F3B1FBF0F7B1FBF0F203FBFD
:101B50000CF307EB830306EBC303B2FBF5F2B3FB15
:101B6000F5F3120103F0F80302EB4302B1FBF0F3CB
:101B7000B1FBF0F0B0FBF5F06FF01801484303EB58
:101B8000800006EBC000B0FBF5F000F00700216814
:101B900010448860BDE8F081FFF7DAFA00EBC0017D
:101BA00001EB001160686FF018078000B1FBF0F2E4
:101BB000B2FBF5F2B1FBF0F37A4303EB8202B1FB27
:101BC000F0F306EB0212B2FBF5F2B3FBF5F302F011
:101BD000F00202EB0312B1FBF0F3B1FBF0F0B0FB4B
:101BE000F5F0784303EB800006EB0010B0FBF5F056
:101BF00000F00F00CBE7000000140140001001408E
:101C000010B5D0F8B42252689047002010BD13469A
:101C100010B50A46002100F065FB002010BD1346F8
:101C200010B50A46002100F0F8FB002010BD10B5E9
:101C30000446802100F0D6FB2046BDE8104000217C
:101C400000F0D0BB10B505210023C0F894121A464D
:101C5000194600F047FB002010BD10B50223C261F9
:101C6000C0F89432026213460A46002100F0D5FB08
:101C7000002010BD10B504210023C0F894121A46AC
:101C8000194600F0CAFB002010BDF8B5044600203C
:101C9000ADF8000048880D46010A082948D2DFE85F
:101CA00001F04704091747473C45D4F8B012207C9F
:101CB0000A6819E0207C02260028D4F8B40205D076
:101CC000C16A68468847014646703EE0816AF8E787
:101CD000C0B206282CD2DFE800F0030A1014181C4A
:101CE000D4F8B002426805E0694690471CE0D4F899
:101CF000B0028268E2B1207CF6E7D4F8B002C26894
:101D0000F8E7D4F8B0020269F4E7D4F8B002426907
:101D1000F0E7D4F8B0028269ECE7207C40B9D4F84F
:101D2000B402416B6846884701460EE0207C20B132
:101D300029462046FFF77BFFF8BDD4F8B402016BBB
:101D400068468847014607204870BDF8000048B142
:101D5000EA8852B1824200D90246ADF800202046FE
:101D6000FFF77BFFE8880028E6D12046FFF782FFD7
:101D7000F8BD00F05FBA70B5002300281ED00446FD
:101D8000002502E06D1CEDB2641C2678002EF9D10E
:101D9000022404EB450414801278CA545B1C03220D
:101DA000CA5400245B1C06E0CA545B1CDAB28C5493
:101DB000521CD3B2401C0278002AF5D170BD01003C
:101DC0004FF0000004D0012901D0022901D00220E7
:101DD000704701207047D0F8B8020021017308460F
:101DE0007047000070B50546FFF7C3FF084C4FF47D
:101DF0000073084A20600121284600F073FA208809
:101E0000044982B2284600F05DF8002070BD000051
:101E10009C000020700A002070B50446812100F06B
:101E20004FF9002501212046E56200F049F9C4F888
:101E30006C51D4F8B80218B101F0D6F9C4F8B85210
:101E4000002070BD0A210180004870470C0100206D
:101E50002021018000487047A0000020202101803F
:101E600000487047C00000202021018000487047D2
:101E7000E000002070B54FF4007504462B460322A5
:101E8000812100F023FA01262B460222314620460A
:101E9000E66200F01BFA1020C4F86C6101F0D8F97A
:101EA000C4F8B80250B12B46054A0121204600F083
:101EB00019FAD4F8B8120020087370BD022070BD62
:101EC000700A002010B5134690F89C42D0F8B82252
:101ED000032C07D1147B2CB9012414730A468121E9
:101EE00000F09BFA002010BD38B503460022D0F860
:101EF000B802ADF8002014460A7812F0600216D03D
:101F0000202A4AD14A78022A0ED0032A06D00A2A69
:101F100006D00B2A41D18978016042E001222BE0F2
:101F20004988090A41603CE00122011D25E04A7808
:101F300032B1062A0BD00A2A23D00B2A2DD128E051
:101F400093F89C02032828D10222694615E04888AC
:101F50002222B2EB102F05D1CA884A2A00D94A2280
:101F6000124809E02122B2EB102F16D10F48CA887F
:101F70001838092A00D9092201461846FFF76DFED4
:101F80000FE093F89C22032A07D1012200F10801F7
:101F9000F3E793F89C22032A05D01846FFF747FE83
:101FA0000224204638BD89788160FAE718010020B4
:101FB00010B50A46024903A0FFF7DDFE004810BD38
:101FC0007004002048494420436F6E666967000032
:101FD00012200880004870472000002010B50A46F3
:101FE000024903A0FFF7C7FE004810BD700400209F
:101FF00048494420496E746572666163650000005B
:1020000004200880004870471C00002010B50A46D4
:10201000024903A0FFF7AFFE004810BD7004002086
:102020004858592D323032300000000010B50A46B1
:10203000024903A0FFF79FFE004810BD7004002076
:102040004858592D434849440000000010B51A2053
:1020500008800A480168001D0468001D006808180F
:1020600009D008220649FFF73FFB05490422103139
:102070002046FFF739FB0248801E10BD107AFF1F73
:102080003600002010B580B1D0F8B43213B100236F
:10209000C0F8B43209B1C0F8B012012180F89C1226
:1020A000027000F0CBF8002010BD022010BD10B56A
:1020B000D0F8C002FEF753FBBDE81040FFF77FBE2B
:1020C00010B5D0F8C002FEF724FBBDE81040FFF7C2
:1020D00076BE2DE9F0411746044651B1D4F8B4025A
:1020E00042691AB194F89C02032851D00220BDE83D
:1020F000F081D4F89432002504F11400022B03D0AF
:10210000042B3AD0C3B33CE0D0E903639E4207D925
:10211000F11AC1608AB239462046FFF780FD12E00D
:102120008068B0FBF3F103FB110199B9984211D318
:10213000D4F8981288420DD2002211462046FFF7AB
:102140006EFDC4F8985200231A461946204600F046
:10215000C9F816E0D4F8B402C16829B194F89C0219
:10216000032801D1204688478021204600F03AF913
:102170002046FFF767FD04E0FFE78021204600F0DE
:1021800031F994F8A002012804D184F8A05201E0AA
:10219000204690470020AAE770B51546044649B18D
:1021A000D4F8B40282691AB194F89C02032830D0A2
:1021B000022070BDD4F8941204F5AA70032902D04D
:1021C00005291ED027E0D0E903218A420BD9531AF2
:1021D000C3600846834200D303469AB2294620468C
:1021E000FFF715FD17E0D4F8B402016929B194F89E
:1021F0009C02032801D1204688472046FFF73AFD7C
:1022000009E000200146C4F89402204600F0EAF8F4
:1022100001E020469047002070BD0020704710B5B7
:10222000012180F89C12D0F8B422017952689047BD
:10223000002010BDD0F8C002FEF7BFBA10B501787B
:10224000012928D115490122C1F8FC03C0F8C012A8
:1022500013480860062048600020C8600861C1E992
:1022600006200862C862086348630846FEF788FDD6
:1022700008B1FEF756F84FF400710848FEF708FA67
:10228000802200210548FEF707FA4FF4BA720121B7
:102290000248FEF701FA002010BD00007006002081
:1022A000000004400A0601F07F01D0F8C002C1EB33
:1022B000C10100EB810002D590F83E00704790F814
:1022C000FE017047002070470020704710B51C4683
:1022D0001346D0F8C0022246FEF778FABDE8104057
:1022E000FFF76DBD10B5D0F8C002FEF79FFABDE84C
:1022F0001040FFF764BD70B500220446402311462C
:10230000FFF7E4FF40260125C4F86461334600224C
:1023100080212046C4F85851FFF7D8FF6662A561B6
:1023200084F89C520020C4F894026060C4F8A402AF
:10233000D4F8B80228B1D4F8B4020021426820468B
:102340009047002070BD90F89C12042903D190F8AA
:102350009D1280F89C120020704710B590F89C12D6
:10236000032904D1D0F8B412C96901B1884700200B
:1023700010BD01740020704710B5D0F8C002FEF700
:10238000FBFDBDE81040FFF71ABD70B5044600F52F
:102390002A70054600F04AF80120C4F89402B4F807
:1023A000AE02C4F8980294F8A80210F01F010AD0F7
:1023B00001290DD0022910D000F08001204600F044
:1023C00011F8002070BD2946204600F09EF8F8E77D
:1023D0002946204600F0CAF9F3E72946204600F0D6
:1023E0001DF9EEE710B5D0F8C002FEF743FABDE8DC
:1023F0001040FFF7E4BC10B5D0F8C002FEF7D7FDDF
:10240000BDE81040FFF7DBBC90F89C1280F89D12ED
:10241000042180F89C120020704710B5D0F8C0024B
:10242000FEF762FABDE81040FFF7C9BC0A780270F7
:102430004A7842708A78CB7802EB032242800A798C
:102440004B7902EB032282808A79C97902EB012160
:10245000C18070470246002011B1C2F8B412704723
:102460000220704710B5D0F8B42202241AB11268C5
:10247000904700B90024204610BD000070B50E46FC
:102480001E4D897804462970012931D894F89C02A0
:1024900002280BD003280FD031462046FFF7C7FB98
:1024A00029782046BDE87040FFF7AABBD9B10320C8
:1024B000616084F89C0209E071B16068884212D0C2
:1024C000C1B22046FFF79CFB297861602046FFF7E8
:1024D000C9FF02280CD006E0022084F89C022046A6
:1024E0006160FFF78DFB2046BDE87040FFF7C2BB7F
:1024F00031462046BDE87040FFF799BB60000020E0
:1025000010B5FFF778FF002010BD2DE9F0410A78E3
:10251000002612F0600208D0202A01D0402A70D193
:10252000D0F8B422926890476DE04B7800220125E4
:102530000A2B66D2DFE803F0405D65576508056544
:102540002C29FFF7A2FB5EE004468888D8B9C8882A
:10255000C8B94888802816D200F07F0794F89C02FA
:10256000032810D084F89E7239462046FFF704FFF6
:102570002046FFF77FFB1FB1022084F89C0242E057
:1025800084F89C523FE020463BE0FFF777FF3AE0BB
:10259000CB88012B35D190F89C32012B04D0022B33
:1025A00002D0032B2DD104E08260012200F108014A
:1025B00016E00122011D13E090F89C22012A03D0AD
:1025C000022A01D0032A1CD1CA88022A19D1C56067
:1025D000D0F8A41209B10321C160022200F10C015C
:1025E000FFF73BFB0FE0498801290CD1C0F8A4524A
:1025F00011E090F89C32012B08D0022B06D0032B5F
:1026000004D0FFF714FB3046BDE8F081498801296A
:10261000F9D1C0F8A422FFF72DFBF4E72DE9F04132
:102620000A46044610780027097910F060030AD0A2
:10263000202B01D0402B50D1D4F8B402114683682E
:10264000204698478FE0C0F34110012806D050780B
:10265000D0B301282AD003283FD107E0D4F8B40230
:10266000114683682046BDE8F041184794F89C0263
:10267000022802D0032872D10AE071B380296ED0FB
:102680002046FFF7AFFE80212046FFF7ABFE6AE051
:10269000508838B931B1802904D0D08810B920468B
:1026A000FFF7A0FE2046FFF7E5FA5CE094F89C02F5
:1026B0000228E2D0032852D1508898BB4806F1D0B6
:1026C0002046FFF7F4FCEDE7FFE794F89C020026B4
:1026D000022803D0032842D112E040E009B180294A
:1026E0003DD1080601F07F0000EB800004EB800183
:1026F00001D5143101E001F5AA7102220E602AE031
:10270000080601F00F0000EB800004EB80000AD502
:10271000806920B301F07F0000EB800004EB8005AE
:1027200014350BE01FE0D0F85801C0B101F07F0074
:1027300000EB800004EB800505F5AA7541B1802906
:1027400006D02046FFF7AEFD10B10120286000E062
:102750002E60022229462046FFF77FFA03E0114649
:102760002046FFF764FA3846BDE8F08170B50546AB
:1027700008780C4610F0600003D0202801D04028D3
:1027800016D195F89C02012803D0022801D0032815
:102790000ED1207901280BD8D5F8B40282682846DA
:1027A0009047E188014306D12846FFF763FA02E02B
:1027B0002846FFF73CFA002070BD000070B50A788B
:1027C000012302F00F054E78AB401B4CD0F81C588B
:1027D000012E17D045EA0343C0F81C3800EB421025
:1027E000D0F8002B12040BD4D0F8002B0B89C97839
:1027F000C3F30A031A4344EA81410A43C0F8002B99
:10280000002070BD9BB21D43C0F81C5800EB421065
:10281000D0F800391B04F3D4D0F800390D89C978F9
:10282000C5F30A0589042B4341EA82510B43234334
:10283000C0F80039E4E7000000800010D0F800196B
:102840006FF30A01C0F80019D0F80818C1F341016C
:10285000022905D1D0F8001941F00301C0F8001990
:10286000D0F8041841F48071C0F8041800207047B3
:1028700070B504460699049D0D98012915D0E068AD
:1028800040F04000E060204600F028F8A16B41F4E1
:102890008031A163012D07D1A16841F00601A1603B
:1028A000A16841F02001A16070BDA16B21F48031CD
:1028B000A163E168084A1140E160E16821F4401138
:1028C000E160012803D1E06840F48010E060204618
:1028D00000F004F8DEE70000BFFFBDFF01220C4955
:1028E00002E0521C8A420BD80369002BF9DA026914
:1028F00042F001020261012204E0521C8A4201D925
:10290000032070470369DB07F7D100207047000000
:10291000400D030030B50B784D78012203F00F0411
:1029200002FA04F4012DD0F83C5817D025EA0444EB
:10293000C0F83C48D0F81C48097801F00F018A40E3
:1029400024EA0241C0F81C1800EB4310D0F8001B29
:102950000E4A1140C0F8001B002030BDA4B2A543B0
:10296000C0F83C58D0F81C48097801F00F018A40A3
:1029700091B28C43C0F81C4800EB4310D0F800190A
:10298000034A1140C0F80019E6E700000078F3EFB1
:10299000007833EC10B5D0F8041821F00201C0F82B
:1029A00004180320FDF7BEFC002010BD10B5D0F8C0
:1029B000041841F00201C0F804180320FDF7B2FC2E
:1029C000002010BD2DE9F04F0025DDE90BCB0E46B0
:1029D0000446DDF84090099F2846294604EB800212
:1029E000C2F80411401C0F28F8D32046A06BB9F19F
:1029F000000F17D020F40012A263A06B40F4002255
:102A0000A26308468846C4F8000ED4F80018204691
:102A1000C4F80018BCF1010F0FD0D0F8001841F035
:102A200003010FE040F40012A263A06B20F4002227
:102A3000A263A06B20F48022E2E7D0F800180BB16B
:102A400041F00101C0F80018102100F0A1FA00B116
:102A50000125204600F08CFA00B101254046C4F85B
:102A60001088C4F81488C4F81C8800214FF0006353
:102A70004FF090484FF67F3A15E000BF04EB41124B
:102A8000D2F800C9BCF1000F06DA11B1C2F8008912
:102A900004E0C4F8003901E0C2F80009C2F81009E6
:102AA000C2F808A9491C8E42E8D8002115E000BFF1
:102AB00004EB4112D2F800CBBCF1000F06DA11B1E1
:102AC000C2F8008B04E0C4F8003B01E0C2F8000B40
:102AD000C2F8100BC2F808AB491C8E42E8D8D4F8F3
:102AE000101821F480722146C4F81028012F08D153
:102AF000134AC1F83028D1F83018124A1143C4F8EB
:102B00003018A0616FF0804060611FB9A06940F08B
:102B10001000A061A0690C490843A061BBF1000F3F
:102B200003D0A06940F00800A061B9F1010F03D102
:102B3000A06906490843A0612846BDE8F08F00005F
:102B4000000180000300010000383C8004000040C8
:102B5000816821F0010181600020704770B50D7817
:102B60004E78434CEBB200EB4313012E1FD0D3F849
:102B7000100B6FF31200C3F8100BD3F8100B2040AA
:102B8000C3F8100B486908B188684861D3F8100B86
:102B900040F40020C3F8100BD3F8100B8C68C4F37A
:102BA00012042043C3F8100B012A55D058E04E6997
:102BB000002ED3F8106932D06FF31206C3F81069F3
:102BC000D3F810692640C3F810694E698C68A64294
:102BD00000D94C61D3F8104944F40024C3F81049DB
:102BE000D3F810494E69C6F312063443C3F81049AE
:102BF000012A22D000EB4512D2F8003943F00443F9
:102C0000C2F800394A6932B3D0F83428097801F0A3
:102C10000F03012199400A43C0F8342826E02640DA
:102C2000C3F81069D3F8104944F40024C3F81049DC
:102C3000D3F810496FF31204D8E7096919B100EB12
:102C40004512C2F8141900EB4510D0F8001941F0F4
:102C50000441C0F8001909E0C86808B1C3F8140BB2
:102C6000D3F8000B40F00440C3F8000B002070BD07
:102C7000FFFF07E010B5036C134CA34203D9D0F853
:102C8000003B002B1EDB0023C0F8103BD0F8103BAC
:102C900043F40023C0F8103BD0F8103B43F0180376
:102CA000C0F8103BD0F8103B43F0C043C0F8103BD5
:102CB000012907D1C0F8142BD0F8001B41F0802166
:102CC000C0F8001B002010BD0A30544F4A780B7822
:102CD000012A00EB43100BD0D0F8002B22F4001295
:102CE000C0F8002BC978032914D0022912D017E0AC
:102CF000D0F8002922F40012C0F80029C97803296D
:102D000001D002290CD1D0F8001941F08051C0F84F
:102D1000001905E0D0F8001B41F08051C0F8001BFD
:102D2000002070470A784B78D1B200EB4110012B9C
:102D300012D0D0F8001B002906DB2AB1D0F8001B06
:102D400021F08041C0F8001BD0F8001B41F40011B5
:102D5000C0F8001B00207047D0F80019002906DBDE
:102D60002AB1D0F8001921F08041C0F80019D0F83C
:102D7000001941F40011C0F80019EBE7F8B50C7820
:102D80004F78774DE3B26FF0604600EB4313012FAD
:102D900026D0D3F8104B6FF31204C3F8104BD3F8BE
:102DA000104B2C40C3F8104B4C69002C74D08D682C
:102DB0002C44641EB4FBF5F4D3F8105BA4B206EA0D
:102DC000C4463543C3F8105BD3F8105B8E68664386
:102DD000C6F312042543C3F8105B012A71D0A6E0A4
:102DE0004F691FB3D3F810796FF31207C3F8107946
:102DF000D3F810792F40C3F810794F698D682F44AC
:102E00007F1EB7FBF5F506EAC545D3F810693543D3
:102E1000C3F81059D3F810594E69C6F3120635435A
:102E2000C3F81059CD78012D10D01BE0D3F81069EC
:102E30002E40C3F81069D3F8105945F40025C3F8A3
:102E40001059D3F810596FF3120509E0D3F810594F
:102E500025F0C045C3F81059D3F8105945F0005576
:102E6000C3F81059012A18D000EB4413D3F80049D5
:102E700044F00444C3F80049CC78012C2FD04A69AF
:102E800062B3D0F83428097801F00F03012199408A
:102E90000A43C0F8342860E036E00A691AB100EB52
:102EA0004413C3F81429C97801290FD1D0F80818A0
:102EB000C90500EB4411D1F8002903D442F00052B7
:102EC00002E030E042F08052C1F8002900EB4410EB
:102ED000D0F8001941F00441C0F800193DE0D0F8E5
:102EE0000848E405D3F8004902D444F0005401E056
:102EF00044F08054C3F8004900928A8A93B20A7859
:102F0000C96800F03FF928E0D3F8104B8D68C5F38D
:102F100012052C43C3F8104BD3F8104B44F4002493
:102F2000C3F8104B59E7CA680AB1C3F8142BC97823
:102F300001290CD1D0F80808C005D3F8000B02D441
:102F400040F0005001E040F08050C3F8000BD3F88F
:102F5000000B40F00440C3F8000B0020F8BD000057
:102F6000FFFF07E0816841F00101816000207047A8
:102F7000002110220261054A491C914201D9032017
:102F800070470369DB06F7D400207047400D03004B
:102F90000022202343EA811101610549521C8A4223
:102FA00001D90320704703699B06F7D400207047BE
:102FB000400D0300D0F8080810F0060004D00228E5
:102FC00003D0062801D00F207047022070474069C7
:102FD00000F001007047D0F81818D0F81C0808401D
:102FE00080B27047D0F81818D0F81C080840000CC0
:102FF000704710B5D0F81038D0F8342801F00F041D
:1030000000EB4110E24002F00102D0F8080943EA67
:10301000C212104010BD00EB4111D1F8081BD0F8CE
:103020001408084070474169806908407047D21C05
:1030300010B59308002200F5805002E00468521C8D
:1030400010C19A42FAD3084610BD10B5C26822F0EA
:10305000C042C260012902D029B1012010BDC1685F
:1030600041F0005102E0C16841F08041C16032206E
:10307000FDF758F9002010BDD0F8002822F4FE62B8
:10308000C0F80028D0F800284FF4FE6303EA0111CD
:103090000A43C0F80028002070470000022A3ED1F1
:1030A000264A274B0A449A4201D20F2138E0254A8A
:1030B000254B0A449A4201D20E2131E0234A244B87
:1030C0000A449A4201D20D212AE0224A224B0A44A4
:1030D0009A4201D20C2123E0204A214B0A449A4211
:1030E00001D20B211CE01F4A1F4B0A449A4201D215
:1030F0000A2115E01D4A1E4B0A449A420FD31D4A6D
:103100001D4B0A449A4201D2082109E01B4A11448E
:103110001B4A914201D2072102E0062100E0092169
:10312000C26822F47052C260C2684FF4705303EA5E
:1031300081210A43C260002070470000405327FFEE
:1031400000350C00401E1BFF40420F0000DC0BFF4F
:10315000804F1200808CF9FE20D6130060B6E5FE89
:1031600060E3160000D3CEFE40771B00C05BB3FEC9
:10317000C091210000CA91FE20753800E05459FE2C
:10318000E09C410010B5029C64B9DB1C9C0800EB7C
:103190000230002300F5805002E004C902605B1C8D
:1031A000A342FAD3002010BDFEE70907090E00284C
:1031B00004DB00F1E02080F80014704700F00F00FD
:1031C00000F1E02080F8141D704702E008C8121FCB
:1031D00008C1002AFAD170477047002001E001C100
:1031E000121F002AFBD1704710B5002821D0114BC7
:1031F0000022001F196803E0814203D80A4649688B
:103200000029F9D152B11368841A9C4204D1006894
:1032100018441060104602E0506000E0186039B1B8
:1032200002680B1A934203D10B681A440260496882
:10323000416010BD64010020FDF796F9FEF7C3FB65
:10324000FEF76EFAFEF7B8FAFEF7D2FAFEE70000D4
:10325000F0B50B30154D20F007010024144A0FE0A3
:1032600003688B420BD38B4205D95E1A431847681B
:10327000C3E9006700E04368136002C004E0021D78
:1032800010680028ECD12046002802D1286808B137
:103290000020F0BD064A07481060074A121A22F0C3
:1032A0000702C0E9002401202860D7E76801002058
:1032B00064010020740C0020700E0020000000004B
:1032C00000000000010203040607080900000000D6
:1032D00001020304F4320008000000206C01000029
:1032E000C8020008C83300086C0100200411000067
:1032F000DA31000813D11F140801201B080D041A2D
:103300002D041A4D041AB1141ADD0417040309041C
:1033100012012302FF16406204151A26020102035D
:1033200001031A1A03191F1182105324F413751E76
:103330001B0819041AE9048113D71D1B08E504C1F1
:103340001A5D201A51041A69045A452C14090220E6
:1033500013010125E0320904420215070581022EFE
:10336000020A07050107093F201421110144012227
:103370004A3B0A06222A40C4100A05010902A1019B
:103380000901A1100805091901290315180F2501C4
:10339000950375018102950175058101202817307B
:1033A000093109381581257F750895038106C00903
:1033B0003C05FF090129A00E75019502B122750691
:0833C0009501B101C0000000FD
:040000050800018569
:00000001FF
